S017000047726164655F50726F6A6563745F312E7372656364
S11300000C9431000C944E000C944E000C944E0051
S11300100C944E000C944E000C9495040C944304E0
S11300200C946C040C941A040C9462030C9439031D
S11300300C944E000C94DE040C944E000C940705B2
S11300400C944E000C944E000C944E000C944E00F4
S11300500C944E00A203BC03C903D603E303AF030D
S1130060950311241FBECFE5D8E0DEBFCDBF11E05C
S1130070A0E6B0E0EEEAFEE002C005900D92AC34DA
S1130080B107D9F721E0ACE4B1E001C01D92AE356F
S1130090B207E1F70E9435020C9455070C94000056
S11300A080E00E948C012FEF89E698E12150804086
S11300B09040E1F700C0000080E00E94950108959F
S11300C090E01BC0292F30E0F901EE0FFF1FE20F73
S11300D0F31FE05AFF4F408148130EC0F901EE0FA1
S11300E0FF1F2E0F3F1FF901E05AFF4F0180F281DD
S11300F0E02D099580E008959F5F9F3018F3E0910B
S11301008B00F0918C00099581E00895CF93C82F5E
S113011060E081E00E94FB026C2F661F6627661F69
S113012086E00E94FB02C6FB662760F985E00E9418
S1130130FB02C5FB662760F984E00E94FB02C4FB56
S1130140662760F983E00E94FB0261E082E00E947E
S1130150FB028FE99FE00197F1F700C0000060E027
S113016082E00E94FB028FE99FE00197F1F700C053
S11301700000C3FB662760F986E00E94FB02C2FB15
S1130180662760F985E00E94FB02C1FB662760F9DF
S113019084E00E94FB026C2F617083E00E94FB02EA
S11301A061E082E00E94FB028FE99FE00197F1F792
S11301B000C0000060E082E00E94FB028FE99FE043
S11301C00197F1F700C00000CF910895CF93C82F95
S11301D061E081E00E94FB026C2F661F6627661FA8
S11301E086E00E94FB02C6FB662760F985E00E9458
S11301F0FB02C5FB662760F984E00E94FB02C4FB96
S1130200662760F983E00E94FB0261E082E00E94BD
S1130210FB028FE99FE00197F1F700C0000060E066
S113022082E00E94FB028FE99FE00197F1F700C092
S11302300000C3FB662760F986E00E94FB02C2FB54
S1130240662760F985E00E94FB02C1FB662760F91E
S113025084E00E94FB026C2F617083E00E94FB0229
S113026061E082E00E94FB028FE99FE00197F1F7D1
S113027000C0000060E082E00E94FB028FE99FE082
S11302800197F1F700C00000CF9108952FEF80E7A8
S113029092E0215080409040E1F700C0000082E0ED
S11302A00E94860088E20E9486008CE00E948600FC
S11302B081E00E9486008FE99FE00197F1F700C07A
S11302C0000086E00E9486000895823031F0833079
S11302D031F0813031F080E005C080E103C080E579
S11302E001C080E4603120F4862B80680E9486007F
S11302F008950F931F93CF938C01C0E003C00E9415
S1130300E600CF5FF801EC0FF11D80818111F7CF7A
S1130310CF911F910F910895E82FF0E0E357FF4F1D
S1130320808161E00E94FB020895E82FF0E0E3572A
S1130330FF4F808160E00E94FB020895CF93DF931A
S1130340C82FD0E0CC0FDD1FC057DF4F888161E09C
S11303500E94FB02898160E00E94FB02DF91CF9141
S1130360089582E00E949E0183E00E949E0164E061
S113037080E00E94650180ED90E00E94790108957B
S113038080E00E949E0181E00E949E0164E080E082
S11303900E9465018CED90E00E94790108951F93FD
S11303A0CF93DF9364E080E00E94650187EE90E0E4
S11303B00E94790110E00FC0C12FD0E0CC0FDD1FE7
S11303C0C057DF4F888161E00E94FB02898160E0B1
S11303D00E94FB021F5F143078F3DF91CF911F91CD
S11303E008951F93CF93DF9364E080E00E9465013A
S11303F083EF90E00E94790110E00FC0C12FD0E09C
S1130400CC0FDD1FC057DF4F888160E00E94FB02E4
S1130410898161E00E94FB021F5F143078F3DF9151
S1130420CF911F9108951F93CF93DF9364E080E0F1
S11304300E9465018EEF90E00E94790110E00FC0E8
S1130440C12FD0E0CC0FDD1FC057DF4F888160E0A3
S11304500E94FB02898160E00E94FB021F5F14304E
S113046078F3DF91CF911F9108950E94EB020E94CF
S113047046010E94CA040E941606789462E086E04F
S11304800E948B0382E00E94F6030E94940564E0BC
S113049080E00E9465018EEF90E00E94790160E0A7
S11304A081E00E94650189E091E00E9479010E9447
S11304B020068823E1F30E941D060E946000F7CF06
S11304C0CF93DF93282F2695269526958770613044
S11304D071F120F0623009F453C07AC030E0F901C0
S11304E0EE0FFF1FDF01A20FB31FAA0FBB1FA856F9
S11304F0BF4F0D90BC91A02D6C9141E050E0EA01FA
S113050002C0CC0FDD1F8A95E2F7CE01962F982BFF
S11305109C93E20FF31FEE0FFF1FE856FF4F02807C
S1130520F381E02D908180958923808351C030E050
S1130530F901EE0FFF1FDF01A20FB31FAA0FBB1FAC
S1130540A856BF4F0D90BC91A02D6C9141E050E096
S1130550EA0102C0CC0FDD1F8A95E2F7CE01809537
S1130560962F98239C93E20FF31FEE0FFF1FE8567C
S1130570FF4F0280F381E02D90818923808328C07E
S113058030E0F901EE0FFF1FDF01A20FB31FAA0F26
S1130590BB1FA856BF4F0D90BC91A02D6C9141E09C
S11305A050E0EA0102C0CC0FDD1F8A95E2F7CE01CC
S11305B09C2F909596239C93E20FF31FEE0FFF1F41
S11305C0E856FF4F0280F381E02D9081892B8083D0
S11305D0DF91CF910895CF93C0E009C0EC2FF0E0F4
S11305E0E055FF4F60818C2F0E946002CF5FC032C4
S11305F0A8F3CF910895282F2695269526958770E0
S11306006130D1F430E0F901EE0FFF1FE20FF31F68
S1130610EE0FFF1FE856FF4F0280F381E02D40816B
S113062021E030E0B90102C0660F771F8A95E2F736
S1130630CB01842B8083089561111AC030E0F90145
S1130640EE0FFF1FE20FF31FEE0FFF1FE856FF4FE1
S11306500280F381E02D408121E030E0B90102C045
S1130660660F771F8A95E2F7CB01809584238083F8
S113067008951F920F920FB60F9211242F933F9358
S11306804F935F936F937F938F939F93AF93BF9396
S1130690EF93FF93E0915601F0915701309709F0E1
S11306A00995FF91EF91BF91AF919F918F917F91A8
S11306B06F915F914F913F912F910F900FBE0F90CB
S11306C01F9018951F920F920FB60F9211242F931B
S11306D03F934F935F936F937F938F939F93AF93C6
S11306E0BF93EF93FF93E0915401F091550130973C
S11306F009F00995FF91EF91BF91AF919F918F916F
S11307007F916F915F914F913F912F910F900FBE09
S11307100F901F90189590E08730910508F05FC006
S1130720FC01E65DFF4F0C944F078FB58E7F8FBDA4
S11307308FB582608FBD8EB5877F8EBD8EB580618B
S11307408EBD4DC08FB58E7F8FBD8FB58D7F8FBD14
S11307508EB5877F8EBD8EB58F7E8EBD40C08FB522
S113076081608FBD8FB58D7F8FBD8EB588608EBD46
S11307708EB58F7E8EBD33C08FB58E7F8FBD8FB506
S11307808D7F8FBD8EB588608EBD8EB580618EBD28
S113079026C08FB58E7F8FBD8FB58D7F8FBD8EB5F3
S11307A088608EBD8EB58F7E8EBD19C08FB58E7F4D
S11307B08FBD8FB582608FBD8EB588608EBD8EB5BE
S11307C080618EBD0CC08FB581608FBD8FB5826096
S11307D08FBD8EB588608EBD8EB580618EBD8EB5A1
S11307E0887F8EBD8EB5682B6EBD0895813069F00B
S11307F028F0823089F08330B1F008958FB58F7B73
S11308008FBD8FB58F778FBD08958FB580648FBDF1
S11308108FB58F778FBD08958FB58F7B8FBD8FB5C3
S113082080688FBD08958FB580648FBD8FB5806853
S11308308FBD08951F920F920FB60F9211242F931C
S11308403F934F935F936F937F938F939F93AF9354
S1130850BF93EF93FF93E0915201F09153013097CE
S113086009F00995FF91EF91BF91AF919F918F91FD
S11308707F916F915F914F913F912F910F900FBE98
S11308800F901F9018951F920F920FB60F9211247C
S11308902F933F934F935F936F937F938F939F9384
S11308A0AF93BF93EF93FF93E0915001F091510107
S11308B0309709F00995FF91EF91BF91AF919F9106
S11308C08F917F916F915F914F913F912F910F90F5
S11308D00FBE0F901F9018951F920F920FB60F9294
S11308E011242F933F934F935F936F937F938F9331
S11308F09F93AF93BF93EF93FF93E0914E01F091D9
S11309004F01309709F00995FF91EF91BF91AF9195
S11309109F918F917F916F915F914F913F912F9113
S11309200F900FBE0F901F9018951F920F920FB645
S11309300F9211242F933F934F935F936F937F9361
S11309408F939F93AF93BF93EF93FF93E0914C01E9
S1130950F0914D01309709F00995FF91EF91BF9106
S1130960AF919F918F917F916F915F914F913F9143
S11309702F910F900FBE0F901F9018958BB18D7F04
S11309808BB908958AB188608AB908958AB1806163
S11309908AB908950E94BE0487E689B90E94C204F8
S11309A00E94C60408958CB108958AB180688AB9FA
S11309B0089590935B0180935A0108951F920F92BA
S11309C00FB60F9211242F933F934F935F936F931E
S11309D07F938F939F93AF93BF93EF93FF93E09194
S11309E05A01F0915B01309709F00995FF91EF915D
S11309F0BF91AF919F918F917F916F915F914F9133
S1130A003F912F910F900FBE0F901F9018951F923A
S1130A100F920FB60F9211242F933F934F935F932E
S1130A206F937F938F939F93AF93BF93EF93FF93B2
S1130A30E0915801F0915901309709F00995FF911F
S1130A40EF91BF91AF919F918F917F916F915F9142
S1130A504F913F912F910F900FBE0F901F901895BB
S1130A6066B577B580E090E00E9454062DEC3CEC2E
S1130A704CE45EE30E94BA060E9425067BBD6ABD73
S1130A806CE081E00E9465018BE191E00E947901B4
S1130A90089566B577B580E090E00E9454062AE98F
S1130AA039E949E95EE30E94BA060E9425067BBD46
S1130AB06ABD6CE081E00E94650181E291E00E94E0
S1130AC07901089566B577B580E090E00E945406F8
S1130AD02DEC3CEC4CEC5EE30E94BA060E94250629
S1130AE07BBD6ABD6CE081E00E94650187E291E014
S1130AF00E947901089566B577B580E090E00E9480
S1130B00540620E030E040E05FE30E94BA060E9411
S1130B1025067BBD6ABD6CE081E00E94650185E12C
S1130B2091E00E94790108958AEF9FEF97BD86BDF9
S1130B300E947B051DBC1CBC089566B577B580E09A
S1130B4090E00E9454062AE939E949E15FE30E94F2
S1130B50BA060E9425067BBD6ABD6CE081E00E9456
S1130B6065018DE291E00E947901089566B577B53B
S1130B7080E090E00E94540623E333E343E35FE321
S1130B800E94BA060E9425067BBD6ABD6CE081E026
S1130B900E94650183E391E00E947901089566B59E
S1130BA077B580E090E00E9454062DEC3CEC4CE4D8
S1130BB05FE30E94BA060E9425067BBD6ABD6CE015
S1130BC081E00E94650189E391E00E947901089522
S1130BD066B577B580E090E00E94540626E636E6D6
S1130BE046E65FE30E94BA060E9425067BBD6ABD05
S1130BF06CE081E00E9465018FE391E00E9479013D
S1130C00089586B597B59BBD8ABD6CE081E00E94CE
S1130C10650185E491E00E947901089581E0809363
S1130C205C010E94D30480935D0108958EE096E0F8
S1130C300E94D9040E94D504089580915D0108950D
S1130C4080915C0110925C0108950E94990688F0DD
S1130C509F5798F0B92F9927B751B0F0E1F0660F7C
S1130C60771F881F991F1AF0BA95C9F714C0B130BD
S1130C7091F00E94B306B1E008950C94B306672F77
S1130C80782F8827B85F39F0B93FCCF386957795EC
S1130C906795B395D9F73EF49095809570956195D5
S1130CA07F4F8F4F9F4F0895E89409C097FB3EF400
S1130CB090958095709561957F4F8F4F9F4F9923A5
S1130CC0A9F0F92F96E9BB279395F6958795779523
S1130CD06795B795F111F8CFFAF4BB0F11F460FFE3
S1130CE01BC06F5F7F4F8F4F9F4F16C0882311F03B
S1130CF096E911C0772321F09EE8872F762F05C04F
S1130D00662371F096E8862F70E060E02AF09A95E9
S1130D10660F771F881FDAF7880F9695879597F9DE
S1130D20089557FD9058440F551F59F05F3F71F0D7
S1130D304795880F97FB991F61F09F3F79F087953E
S1130D400895121613061406551FF2CF4695F1DFC7
S1130D5008C0161617061806991FF1CF8695710557
S1130D60610508940895E894BB2766277727CB018B
S1130D7097F908950E94CD060C943E070E9430070F
S1130D8038F00E94370720F0952311F00C942707C0
S1130D900C942D0711240C94B4060E94910670F350
S1130DA0959FC1F3950F50E0551F629FF001729F0C
S1130DB0BB27F00DB11D639FAA27F00DB11DAA1F1B
S1130DC0649F6627B00DA11D661F829F2227B00D68
S1130DD0A11D621F739FB00DA11D621F839FA00DF3
S1130DE0611D221F749F3327A00D611D231F849F43
S1130DF0600D211D822F762F6A2F11249F5750409A
S1130E009AF0F1F088234AF0EE0FFF1FBB1F661F14
S1130E10771F881F91505040A9F79E3F510580F0DD
S1130E200C9427070C94B4065F3FE4F3983ED4F384
S1130E30869577956795B795F795E7959F5FC1F781
S1130E40FE2B880F911D9695879597F9089597F92C
S1130E509F6780E870E060E008959FEF80EC08955C
S1130E6000240A9416161706180609060895002485
S1130E700A9412161306140605060895092E0394FF
S1130E80000C11F4882352F0BB0F40F4BF2B11F473
S1130E9060FF04C06F5F7F4F8F4F9F4F0895EE0F29
S1110EA0FF1F0590F491E02D0994F894FFCF04
S1130EAE46CF0142F10153130252B1014CC001313C
S1130EBE0106323005334905346205357B05369D0E
S1130ECE0537B60538CF0539E8054550001011121F
S1130EDE08090A0B0C0D0E0F3A003B0039003700BF
S1130EEE3800360034003500330031003200300053
S1130EFE01000000000000010000000000000000DE
S1130F0E00000000000200000100020200000000C8
S1130F1E4361722052696768742020004361722015
S1130F2E4C6566742020004361722046726F6E74A5
S1130F3E202000436172204261636B2020004361D4
S1130F4E722053746F7020200043617220537065B9
S1130F5E6564203A203530252020003230252020AB
S1130F6E0033302520200034302520200036302553
S1130F7E202000373025202000383025202000394D
S10F0F8E302520200031303025202000C8
S9030000FC
